:1000000012C02CC02BC02AC029C039C227C026C0AC
:1000100025C024C023C022C021C020C0E5C21EC00C
:100020001DC01CC01BC011241FBECFE5D2E0DEBF27
:10003000CDBF10E0A0E6B0E0EAEAF6E002C005902D
:100040000D92AC3FB107D9F711E0ACEFB0E001C0C1
:100050001D92A230B107E1F702D025C3D1CFDF93C3
:10006000CF93CDB7DEB7F3D14ED078946FD1FECF1A
:10007000DF93CF93CDB7DEB728970FB6F894DEBFE6
:100080000FBECDBF6D837E838F83988719821A82BE
:100090001B821C820BC089819A81AB81BC81019635
:1000A000A11DB11D89839A83AB83BC8329813A81C9
:1000B0004B815C818D819E81AF81B885281739077E
:1000C0004A075B0744F328960FB6F894DEBF0FBECD
:1000D000CDBFCF91DF910895DF93CF9300D0CDB7FF
:1000E000DEB79A838983E5E4F0E089819A81892FDC
:1000F00099278083EDE4F0E0898180830F900F9051
:10010000CF91DF910895DF93CF9300D000D00F926D
:10011000CDB7DEB71B821A8219828CE890E0DCDF53
:100120001092FD00E6C08091FD00282F30E03D8355
:100130002C838C819D818230910509F46FC02C81C4
:100140003D81233031055CF48C819D810097D1F095
:100150002C813D812130310509F446C0C6C08C8117
:100160009D818430910509F48DC02C813D8124301E
:1001700031050CF46DC08C819D818530910509F4A9
:100180009BC0B3C0E0E2F0E08091E40080838B810B
:10019000823018F48B818F5F8B838B81823039F4AE
:1001A0008A818D3120F48A818F5F8A831B828B81C3
:1001B000823029F48A818D3111F481E089838A812A
:1001C000882F90E0880F991F880F991FFC01E05A33
:1001D000FF4F80819181A281B381BC01CD0148DFB5
:1001E00081E08093FD0085C0E0E2F0E08091E500D1
:1001F00080838A81882F90E0880F991F880F991F2C
:10020000FC01E05AFF4F80819181A281B381BC0142
:10021000CD012EDF82E08093FD006BC0E0E2F0E0D4
:100220008091E60080838A81882F90E0880F991F53
:10023000880F991FFC01E05AFF4F80819181A281B4
:10024000B381BC01CD0114DF83E08093FD0051C078
:10025000E0E2F0E08091E70080838A81882F90E0DF
:10026000880F991F880F991FFC01E05AFF4F80816A
:100270009181A281B381BC01CD01FADE84E080933B
:10028000FD0037C0E0E2F0E08091E80080838A81E1
:10029000882F90E0880F991F880F991FFC01E05A62
:1002A000FF4F80819181A281B381BC01CD01E0DE4D
:1002B00085E08093FD001DC0E0E2F0E08091E90060
:1002C00080838A81882F90E0880F991F880F991F5B
:1002D000FC01E05AFF4F80819181A281B381BC0172
:1002E000CD01C6DE1092FD0004C08091FD00809318
:1002F000FD008981813009F016CF1092FD008091B8
:10030000FD00882F90E0FC01E051FF4F8081809339
:100310000101A7E2B0E08091FD00882F90E0FC0190
:10032000E852FF4F80818C93E4E3F0E01082E2E535
:10033000F0E01082E9E5F0E084E080830F900F9018
:100340000F900F900F90CF91DF910895DF93CF938F
:10035000CDB7DEB78091FC00882379F01092FC00C5
:100360008091FF00909100019695879596958795CD
:100370009695879580569F4FAFDECF91DF91089578
:10038000DF93CF93CDB7DEB7E3E5F0E082E0808383
:10039000CF91DF910895DF93CF93CDB7DEB7E9E436
:1003A000F0E084E08083CF91DF910895DF93CF93D5
:1003B000CDB7DEB7E0E5F0E082E88083E6E4F0E088
:1003C00083E08083E5E4F0E01082EBE4F0E08FEF7F
:1003D0008083EFE4F0E081E08083CF91DF910895A6
:1003E000DF93CF93CDB7DEB7E7E2F0E082E480831E
:1003F000E6E2F0E084ED8083E6E2F0E08081882FA1
:1004000090E0807490700097B9F7E4E2F0E08081AA
:100410009181909300018093FF00E6E2F0E084EB8D
:100420008083E3E2F0E086E08083CF91DF9108955E
:10043000DF93CF93CDB7DEB7E7E3F0E08FE78083BC
:10044000E1E2F0E086E38083CF91DF910895DF93CE
:10045000CF930F92CDB7DEB780E88983298180E002
:1004600090E00FB6F89428BD88BD0FBE94DF9EDFE4
:10047000B7DF86DFDDDF0F90CF91DF9108951F9208
:100480000F920FB60F9211242F933F938F939F9348
:10049000AF93BF93EF93FF93DF93CF9300D000D040
:1004A0000F92CDB7DEB7A8E5B0E0E8E5F0E08081D7
:1004B000846E8C93E6E2F0E084ED8083E6E2F0E087
:1004C0008081882F90E0807490700097B9F7E4E203
:1004D000F0E0808191819D838C838091010188234C
:1004E00031F48C819D8121E08437920760F4809102
:1004F0000101813009F064C08C819D8121E0833746
:10050000920708F05DC0E2E5F0E080818983E4E3D2
:10051000F0E08081882F90E0382F22278981882F72
:1005200090E0822B932B9B838A83E4E3F0E010829C
:10053000E2E5F0E01082E3E3F0E08A81808381E08D
:100540008093FC00E9E5F0E080E18083A8E5B0E07D
:10055000E8E5F0E080818B618C93A9E5B0E0E9E506
:10056000F0E080818B718C93E6E2F0E08081882F4F
:1005700090E0807490700097B9F7E7E2F0E082E4D1
:100580008083A6E2B0E0E6E2F0E0808180648C93B4
:10059000E6E2F0E08081882F90E080749070009710
:1005A000B9F7E4E2F0E080819181909300018093BB
:1005B000FF00A6E2B0E0E6E2F0E0808183628C9387
:1005C0000F900F900F900F900F90CF91DF91FF91B0
:1005D000EF91BF91AF919F918F913F912F910F908C
:1005E0000FBE0F901F9018951F920F920FB60F928B
:1005F00011248F939F93AF93BF93EF93FF93DF9358
:10060000CF93CDB7DEB7A8E5B0E0E8E5F0E08081B4
:100610008B618C93A0E2B0E08091FD00882F90E088
:10062000FC01EC51FF4F80818C93E4E3F0E01082F9
:10063000E2E5F0E010828091FD00882F90E0FC015F
:10064000E051FF4F808180930101A7E2B0E08091EB
:10065000FD00882F90E0FC01E852FF4F80818C93D1
:100660008091FD008F5F8093FD008091FD008630BA
:1006700010F01092FD00A9E5B0E0E9E5F0E080811E
:10068000847E8C93E9E5F0E084E08083CF91DF9174
:10069000FF91EF91BF91AF919F918F910F900FBEFE
:0A06A0000F901F901895F894FFCFFB
:1006AA00D00700006C0700000807000040060000A1
:1006BA0078050000B0040000E803000020030000F1
:1006CA005802000026020000F4010000E0010000C8
:1006DA00CC010000B8010000A40100009001000054
:1006EA007C01000068010000630100005E01000057
:1006FA0059010000540100004F0100004A010000A6
:10070A0045010000400100003B01000036010000E5
:10071A00310100002C010000434144434144434459
:10072A0041434441121809212406120624210918BA
:0C073A00000100010001010001000100AD
:00000001FF
